{
  "address": "0x2917CD1DfBBcd78d110781e868A1b0eF83F5816a",
  "abi": [
    {
      "inputs": [
        {
          "internalType": "uint256",
          "name": "totalSupply",
          "type": "uint256"
        }
      ],
      "stateMutability": "nonpayable",
      "type": "constructor"
    },
    {
      "anonymous": false,
      "inputs": [
        {
          "indexed": true,
          "internalType": "address",
          "name": "owner",
          "type": "address"
        },
        {
          "indexed": true,
          "internalType": "address",
          "name": "spender",
          "type": "address"
        },
        {
          "indexed": false,
          "internalType": "uint256",
          "name": "value",
          "type": "uint256"
        }
      ],
      "name": "Approval",
      "type": "event"
    },
    {
      "anonymous": false,
      "inputs": [
        {
          "indexed": true,
          "internalType": "bytes32",
          "name": "role",
          "type": "bytes32"
        },
        {
          "indexed": true,
          "internalType": "bytes32",
          "name": "previousAdminRole",
          "type": "bytes32"
        },
        {
          "indexed": true,
          "internalType": "bytes32",
          "name": "newAdminRole",
          "type": "bytes32"
        }
      ],
      "name": "RoleAdminChanged",
      "type": "event"
    },
    {
      "anonymous": false,
      "inputs": [
        {
          "indexed": true,
          "internalType": "bytes32",
          "name": "role",
          "type": "bytes32"
        },
        {
          "indexed": true,
          "internalType": "address",
          "name": "account",
          "type": "address"
        },
        {
          "indexed": true,
          "internalType": "address",
          "name": "sender",
          "type": "address"
        }
      ],
      "name": "RoleGranted",
      "type": "event"
    },
    {
      "anonymous": false,
      "inputs": [
        {
          "indexed": true,
          "internalType": "bytes32",
          "name": "role",
          "type": "bytes32"
        },
        {
          "indexed": true,
          "internalType": "address",
          "name": "account",
          "type": "address"
        },
        {
          "indexed": true,
          "internalType": "address",
          "name": "sender",
          "type": "address"
        }
      ],
      "name": "RoleRevoked",
      "type": "event"
    },
    {
      "anonymous": false,
      "inputs": [
        {
          "indexed": true,
          "internalType": "address",
          "name": "from",
          "type": "address"
        },
        {
          "indexed": true,
          "internalType": "address",
          "name": "to",
          "type": "address"
        },
        {
          "indexed": false,
          "internalType": "uint256",
          "name": "value",
          "type": "uint256"
        }
      ],
      "name": "Transfer",
      "type": "event"
    },
    {
      "inputs": [],
      "name": "BURNER_ROLE",
      "outputs": [
        {
          "internalType": "bytes32",
          "name": "",
          "type": "bytes32"
        }
      ],
      "stateMutability": "view",
      "type": "function"
    },
    {
      "inputs": [],
      "name": "DEFAULT_ADMIN_ROLE",
      "outputs": [
        {
          "internalType": "bytes32",
          "name": "",
          "type": "bytes32"
        }
      ],
      "stateMutability": "view",
      "type": "function"
    },
    {
      "inputs": [
        {
          "internalType": "address",
          "name": "owner",
          "type": "address"
        },
        {
          "internalType": "address",
          "name": "spender",
          "type": "address"
        }
      ],
      "name": "allowance",
      "outputs": [
        {
          "internalType": "uint256",
          "name": "",
          "type": "uint256"
        }
      ],
      "stateMutability": "view",
      "type": "function"
    },
    {
      "inputs": [
        {
          "internalType": "address",
          "name": "spender",
          "type": "address"
        },
        {
          "internalType": "uint256",
          "name": "amount",
          "type": "uint256"
        }
      ],
      "name": "approve",
      "outputs": [
        {
          "internalType": "bool",
          "name": "",
          "type": "bool"
        }
      ],
      "stateMutability": "nonpayable",
      "type": "function"
    },
    {
      "inputs": [
        {
          "internalType": "address",
          "name": "account",
          "type": "address"
        }
      ],
      "name": "balanceOf",
      "outputs": [
        {
          "internalType": "uint256",
          "name": "",
          "type": "uint256"
        }
      ],
      "stateMutability": "view",
      "type": "function"
    },
    {
      "inputs": [
        {
          "internalType": "address",
          "name": "from",
          "type": "address"
        },
        {
          "internalType": "uint256",
          "name": "amount",
          "type": "uint256"
        }
      ],
      "name": "burn",
      "outputs": [],
      "stateMutability": "nonpayable",
      "type": "function"
    },
    {
      "inputs": [],
      "name": "decimals",
      "outputs": [
        {
          "internalType": "uint8",
          "name": "",
          "type": "uint8"
        }
      ],
      "stateMutability": "view",
      "type": "function"
    },
    {
      "inputs": [
        {
          "internalType": "address",
          "name": "spender",
          "type": "address"
        },
        {
          "internalType": "uint256",
          "name": "subtractedValue",
          "type": "uint256"
        }
      ],
      "name": "decreaseAllowance",
      "outputs": [
        {
          "internalType": "bool",
          "name": "",
          "type": "bool"
        }
      ],
      "stateMutability": "nonpayable",
      "type": "function"
    },
    {
      "inputs": [
        {
          "internalType": "bytes32",
          "name": "role",
          "type": "bytes32"
        }
      ],
      "name": "getRoleAdmin",
      "outputs": [
        {
          "internalType": "bytes32",
          "name": "",
          "type": "bytes32"
        }
      ],
      "stateMutability": "view",
      "type": "function"
    },
    {
      "inputs": [
        {
          "internalType": "bytes32",
          "name": "role",
          "type": "bytes32"
        },
        {
          "internalType": "address",
          "name": "account",
          "type": "address"
        }
      ],
      "name": "grantRole",
      "outputs": [],
      "stateMutability": "nonpayable",
      "type": "function"
    },
    {
      "inputs": [
        {
          "internalType": "bytes32",
          "name": "role",
          "type": "bytes32"
        },
        {
          "internalType": "address",
          "name": "account",
          "type": "address"
        }
      ],
      "name": "hasRole",
      "outputs": [
        {
          "internalType": "bool",
          "name": "",
          "type": "bool"
        }
      ],
      "stateMutability": "view",
      "type": "function"
    },
    {
      "inputs": [
        {
          "internalType": "address",
          "name": "spender",
          "type": "address"
        },
        {
          "internalType": "uint256",
          "name": "addedValue",
          "type": "uint256"
        }
      ],
      "name": "increaseAllowance",
      "outputs": [
        {
          "internalType": "bool",
          "name": "",
          "type": "bool"
        }
      ],
      "stateMutability": "nonpayable",
      "type": "function"
    },
    {
      "inputs": [],
      "name": "name",
      "outputs": [
        {
          "internalType": "string",
          "name": "",
          "type": "string"
        }
      ],
      "stateMutability": "view",
      "type": "function"
    },
    {
      "inputs": [
        {
          "internalType": "bytes32",
          "name": "role",
          "type": "bytes32"
        },
        {
          "internalType": "address",
          "name": "account",
          "type": "address"
        }
      ],
      "name": "renounceRole",
      "outputs": [],
      "stateMutability": "nonpayable",
      "type": "function"
    },
    {
      "inputs": [
        {
          "internalType": "bytes32",
          "name": "role",
          "type": "bytes32"
        },
        {
          "internalType": "address",
          "name": "account",
          "type": "address"
        }
      ],
      "name": "revokeRole",
      "outputs": [],
      "stateMutability": "nonpayable",
      "type": "function"
    },
    {
      "inputs": [
        {
          "internalType": "bytes4",
          "name": "interfaceId",
          "type": "bytes4"
        }
      ],
      "name": "supportsInterface",
      "outputs": [
        {
          "internalType": "bool",
          "name": "",
          "type": "bool"
        }
      ],
      "stateMutability": "view",
      "type": "function"
    },
    {
      "inputs": [],
      "name": "symbol",
      "outputs": [
        {
          "internalType": "string",
          "name": "",
          "type": "string"
        }
      ],
      "stateMutability": "view",
      "type": "function"
    },
    {
      "inputs": [],
      "name": "totalSupply",
      "outputs": [
        {
          "internalType": "uint256",
          "name": "",
          "type": "uint256"
        }
      ],
      "stateMutability": "view",
      "type": "function"
    },
    {
      "inputs": [
        {
          "internalType": "address",
          "name": "recipient",
          "type": "address"
        },
        {
          "internalType": "uint256",
          "name": "amount",
          "type": "uint256"
        }
      ],
      "name": "transfer",
      "outputs": [
        {
          "internalType": "bool",
          "name": "",
          "type": "bool"
        }
      ],
      "stateMutability": "nonpayable",
      "type": "function"
    },
    {
      "inputs": [
        {
          "internalType": "address",
          "name": "sender",
          "type": "address"
        },
        {
          "internalType": "address",
          "name": "recipient",
          "type": "address"
        },
        {
          "internalType": "uint256",
          "name": "amount",
          "type": "uint256"
        }
      ],
      "name": "transferFrom",
      "outputs": [
        {
          "internalType": "bool",
          "name": "",
          "type": "bool"
        }
      ],
      "stateMutability": "nonpayable",
      "type": "function"
    }
  ],
  "transactionHash": "0x3543dbaa081afe2b972f23723cb7840d1ec65c624ded46f17f5f3b86345440ba",
  "args": [
    40000000
  ],
  "solcInputHash": "f6794434543d1d4390e007fb3b72d7ff",
  "bytecode": "0x60806040526040518060400160405280600581526020017f48656c6c6f00000000000000000000000000000000000000000000000000000081525060069080519060200190620000519291906200048f565b503480156200005f57600080fd5b5060405162002dac38038062002dac833981810160405281019062000085919062000556565b6040518060400160405280600381526020017f4d544300000000000000000000000000000000000000000000000000000000008152506040518060400160405280600881526020017f4d7463546f6b656e0000000000000000000000000000000000000000000000008152508160039080519060200190620001099291906200048f565b508060049080519060200190620001229291906200048f565b505050620001496000801b6200013d620001a160201b60201c565b620001a960201b60201c565b60006200015b620001bf60201b60201c565b600a620001699190620006dd565b826200017691906200081a565b9050620001996200018c620001a160201b60201c565b82620001c860201b60201c565b50506200094d565b600033905090565b620001bb82826200032d60201b60201c565b5050565b60006012905090565b600073ffffffffffffffffffffffffffffffffffffffff168273ffffffffffffffffffffffffffffffffffffffff1614156200023b576040517f08c379a00000000000000000000000000000000000000000000000000000000081526004016200023290620005d5565b60405180910390fd5b6200024f600083836200041f60201b60201c565b806002600082825462000263919062000625565b92505081905550806000808473ffffffffffffffffffffffffffffffffffffffff1673ffffffffffffffffffffffffffffffffffffffff1681526020019081526020016000206000828254620002ba919062000625565b925050819055508173ffffffffffffffffffffffffffffffffffffffff16600073ffffffffffffffffffffffffffffffffffffffff167fddf252ad1be2c89b69c2b068fc378daa952ba7f163c4a11628f55a4df523b3ef83604051620003219190620005f7565b60405180910390a35050565b6200033f82826200042460201b60201c565b6200041b5760016005600084815260200190815260200160002060000160008373ffffffffffffffffffffffffffffffffffffffff1673ffffffffffffffffffffffffffffffffffffffff16815260200190815260200160002060006101000a81548160ff021916908315150217905550620003c0620001a160201b60201c565b73ffffffffffffffffffffffffffffffffffffffff168173ffffffffffffffffffffffffffffffffffffffff16837f2f8788117e7eff1d82e926ec794901d17c78024a50270940304540a733656f0d60405160405180910390a45b5050565b505050565b60006005600084815260200190815260200160002060000160008373ffffffffffffffffffffffffffffffffffffffff1673ffffffffffffffffffffffffffffffffffffffff16815260200190815260200160002060009054906101000a900460ff16905092915050565b8280546200049d9062000892565b90600052602060002090601f016020900481019282620004c157600085556200050d565b82601f10620004dc57805160ff19168380011785556200050d565b828001600101855582156200050d579182015b828111156200050c578251825591602001919060010190620004ef565b5b5090506200051c919062000520565b5090565b5b808211156200053b57600081600090555060010162000521565b5090565b600081519050620005508162000933565b92915050565b6000602082840312156200056957600080fd5b600062000579848285016200053f565b91505092915050565b600062000591601f8362000614565b91507f45524332303a206d696e7420746f20746865207a65726f2061646472657373006000830152602082019050919050565b620005cf816200087b565b82525050565b60006020820190508181036000830152620005f08162000582565b9050919050565b60006020820190506200060e6000830184620005c4565b92915050565b600082825260208201905092915050565b600062000632826200087b565b91506200063f836200087b565b9250827fffffffffffffffffffffffffffffffffffffffffffffffffffffffffffffffff03821115620006775762000676620008c8565b5b828201905092915050565b6000808291508390505b6001851115620006d457808604811115620006ac57620006ab620008c8565b5b6001851615620006bc5780820291505b8081029050620006cc8562000926565b94506200068c565b94509492505050565b6000620006ea826200087b565b9150620006f78362000885565b9250620007267fffffffffffffffffffffffffffffffffffffffffffffffffffffffffffffffff84846200072e565b905092915050565b60008262000740576001905062000813565b8162000750576000905062000813565b81600181146200076957600281146200077457620007aa565b600191505062000813565b60ff841115620007895762000788620008c8565b5b8360020a915084821115620007a357620007a2620008c8565b5b5062000813565b5060208310610133831016604e8410600b8410161715620007e45782820a905083811115620007de57620007dd620008c8565b5b62000813565b620007f3848484600162000682565b925090508184048111156200080d576200080c620008c8565b5b81810290505b9392505050565b600062000827826200087b565b915062000834836200087b565b9250817fffffffffffffffffffffffffffffffffffffffffffffffffffffffffffffffff048311821515161562000870576200086f620008c8565b5b828202905092915050565b6000819050919050565b600060ff82169050919050565b60006002820490506001821680620008ab57607f821691505b60208210811415620008c257620008c1620008f7565b5b50919050565b7f4e487b7100000000000000000000000000000000000000000000000000000000600052601160045260246000fd5b7f4e487b7100000000000000000000000000000000000000000000000000000000600052602260045260246000fd5b60008160011c9050919050565b6200093e816200087b565b81146200094a57600080fd5b50565b61244f806200095d6000396000f3fe608060405234801561001057600080fd5b506004361061012c5760003560e01c806339509351116100ad578063a217fddf11610071578063a217fddf1461036b578063a457c2d714610389578063a9059cbb146103b9578063d547741f146103e9578063dd62ed3e146104055761012c565b806339509351146102a157806370a08231146102d157806391d148541461030157806395d89b41146103315780639dc29fac1461034f5761012c565b8063248a9ca3116100f4578063248a9ca3146101fd578063282c51f31461022d5780632f2ff15d1461024b578063313ce5671461026757806336568abe146102855761012c565b806301ffc9a71461013157806306fdde0314610161578063095ea7b31461017f57806318160ddd146101af57806323b872dd146101cd575b600080fd5b61014b60048036038101906101469190611916565b610435565b6040516101589190611f1b565b60405180910390f35b6101696104af565b6040516101769190611f51565b60405180910390f35b61019960048036038101906101949190611875565b610541565b6040516101a69190611f1b565b60405180910390f35b6101b761055f565b6040516101c491906120f3565b60405180910390f35b6101e760048036038101906101e29190611826565b610569565b6040516101f49190611f1b565b60405180910390f35b610217600480360381019061021291906118b1565b61066a565b6040516102249190611f36565b60405180910390f35b61023561068a565b6040516102429190611f36565b60405180910390f35b610265600480360381019061026091906118da565b6106ae565b005b61026f6106d7565b60405161027c919061210e565b60405180910390f35b61029f600480360381019061029a91906118da565b6106e0565b005b6102bb60048036038101906102b69190611875565b610763565b6040516102c89190611f1b565b60405180910390f35b6102eb60048036038101906102e691906117c1565b61080f565b6040516102f891906120f3565b60405180910390f35b61031b600480360381019061031691906118da565b610857565b6040516103289190611f1b565b60405180910390f35b6103396108c2565b6040516103469190611f51565b60405180910390f35b61036960048036038101906103649190611875565b610954565b005b6103736109b5565b6040516103809190611f36565b60405180910390f35b6103a3600480360381019061039e9190611875565b6109bc565b6040516103b09190611f1b565b60405180910390f35b6103d360048036038101906103ce9190611875565b610ab0565b6040516103e09190611f1b565b60405180910390f35b61040360048036038101906103fe91906118da565b610ace565b005b61041f600480360381019061041a91906117ea565b610af7565b60405161042c91906120f3565b60405180910390f35b60007f7965db0b000000000000000000000000000000000000000000000000000000007bffffffffffffffffffffffffffffffffffffffffffffffffffffffff1916827bffffffffffffffffffffffffffffffffffffffffffffffffffffffff191614806104a857506104a782610b7e565b5b9050919050565b6060600380546104be9061231c565b80601f01602080910402602001604051908101604052809291908181526020018280546104ea9061231c565b80156105375780601f1061050c57610100808354040283529160200191610537565b820191906000526020600020905b81548152906001019060200180831161051a57829003601f168201915b5050505050905090565b600061055561054e610be8565b8484610bf0565b6001905092915050565b6000600254905090565b6000610576848484610dbb565b6000600160008673ffffffffffffffffffffffffffffffffffffffff1673ffffffffffffffffffffffffffffffffffffffff16815260200190815260200160002060006105c1610be8565b73ffffffffffffffffffffffffffffffffffffffff1673ffffffffffffffffffffffffffffffffffffffff16815260200190815260200160002054905082811015610641576040517f08c379a000000000000000000000000000000000000000000000000000000000815260040161063890612033565b60405180910390fd5b61065e8561064d610be8565b85846106599190612200565b610bf0565b60019150509392505050565b600060056000838152602001908152602001600020600101549050919050565b7f3c11d16cbaffd01df69ce1c404f6340ee057498f5f00246190ea54220576a84881565b6106b78261066a565b6106c8816106c3610be8565b61103a565b6106d283836110d7565b505050565b60006012905090565b6106e8610be8565b73ffffffffffffffffffffffffffffffffffffffff168173ffffffffffffffffffffffffffffffffffffffff1614610755576040517f08c379a000000000000000000000000000000000000000000000000000000000815260040161074c906120d3565b60405180910390fd5b61075f82826111b8565b5050565b6000610805610770610be8565b84846001600061077e610be8565b73ffffffffffffffffffffffffffffffffffffffff1673ffffffffffffffffffffffffffffffffffffffff16815260200190815260200160002060008873ffffffffffffffffffffffffffffffffffffffff1673ffffffffffffffffffffffffffffffffffffffff168152602001908152602001600020546108009190612150565b610bf0565b6001905092915050565b60008060008373ffffffffffffffffffffffffffffffffffffffff1673ffffffffffffffffffffffffffffffffffffffff168152602001908152602001600020549050919050565b60006005600084815260200190815260200160002060000160008373ffffffffffffffffffffffffffffffffffffffff1673ffffffffffffffffffffffffffffffffffffffff16815260200190815260200160002060009054906101000a900460ff16905092915050565b6060600480546108d19061231c565b80601f01602080910402602001604051908101604052809291908181526020018280546108fd9061231c565b801561094a5780601f1061091f5761010080835404028352916020019161094a565b820191906000526020600020905b81548152906001019060200180831161092d57829003601f168201915b5050505050905090565b6109686000801b610963610be8565b610857565b6109a7576040517f08c379a000000000000000000000000000000000000000000000000000000000815260040161099e90612013565b60405180910390fd5b6109b1828261129a565b5050565b6000801b81565b600080600160006109cb610be8565b73ffffffffffffffffffffffffffffffffffffffff1673ffffffffffffffffffffffffffffffffffffffff16815260200190815260200160002060008573ffffffffffffffffffffffffffffffffffffffff1673ffffffffffffffffffffffffffffffffffffffff16815260200190815260200160002054905082811015610a88576040517f08c379a0000000000000000000000000000000000000000000000000000000008152600401610a7f906120b3565b60405180910390fd5b610aa5610a93610be8565b858584610aa09190612200565b610bf0565b600191505092915050565b6000610ac4610abd610be8565b8484610dbb565b6001905092915050565b610ad78261066a565b610ae881610ae3610be8565b61103a565b610af283836111b8565b505050565b6000600160008473ffffffffffffffffffffffffffffffffffffffff1673ffffffffffffffffffffffffffffffffffffffff16815260200190815260200160002060008373ffffffffffffffffffffffffffffffffffffffff1673ffffffffffffffffffffffffffffffffffffffff16815260200190815260200160002054905092915050565b60007f01ffc9a7000000000000000000000000000000000000000000000000000000007bffffffffffffffffffffffffffffffffffffffffffffffffffffffff1916827bffffffffffffffffffffffffffffffffffffffffffffffffffffffff1916149050919050565b600033905090565b600073ffffffffffffffffffffffffffffffffffffffff168373ffffffffffffffffffffffffffffffffffffffff161415610c60576040517f08c379a0000000000000000000000000000000000000000000000000000000008152600401610c5790612093565b60405180910390fd5b600073ffffffffffffffffffffffffffffffffffffffff168273ffffffffffffffffffffffffffffffffffffffff161415610cd0576040517f08c379a0000000000000000000000000000000000000000000000000000000008152600401610cc790611fd3565b60405180910390fd5b80600160008573ffffffffffffffffffffffffffffffffffffffff1673ffffffffffffffffffffffffffffffffffffffff16815260200190815260200160002060008473ffffffffffffffffffffffffffffffffffffffff1673ffffffffffffffffffffffffffffffffffffffff168152602001908152602001600020819055508173ffffffffffffffffffffffffffffffffffffffff168373ffffffffffffffffffffffffffffffffffffffff167f8c5be1e5ebec7d5bd14f71427d1e84f3dd0314c0f7b2291e5b200ac8c7c3b92583604051610dae91906120f3565b60405180910390a3505050565b600073ffffffffffffffffffffffffffffffffffffffff168373ffffffffffffffffffffffffffffffffffffffff161415610e2b576040517f08c379a0000000000000000000000000000000000000000000000000000000008152600401610e2290612073565b60405180910390fd5b600073ffffffffffffffffffffffffffffffffffffffff168273ffffffffffffffffffffffffffffffffffffffff161415610e9b576040517f08c379a0000000000000000000000000000000000000000000000000000000008152600401610e9290611f93565b60405180910390fd5b610ea683838361146e565b60008060008573ffffffffffffffffffffffffffffffffffffffff1673ffffffffffffffffffffffffffffffffffffffff16815260200190815260200160002054905081811015610f2c576040517f08c379a0000000000000000000000000000000000000000000000000000000008152600401610f2390611ff3565b60405180910390fd5b8181610f389190612200565b6000808673ffffffffffffffffffffffffffffffffffffffff1673ffffffffffffffffffffffffffffffffffffffff16815260200190815260200160002081905550816000808573ffffffffffffffffffffffffffffffffffffffff1673ffffffffffffffffffffffffffffffffffffffff1681526020019081526020016000206000828254610fc89190612150565b925050819055508273ffffffffffffffffffffffffffffffffffffffff168473ffffffffffffffffffffffffffffffffffffffff167fddf252ad1be2c89b69c2b068fc378daa952ba7f163c4a11628f55a4df523b3ef8460405161102c91906120f3565b60405180910390a350505050565b6110448282610857565b6110d3576110698173ffffffffffffffffffffffffffffffffffffffff166014611473565b6110778360001c6020611473565b604051602001611088929190611ee1565b6040516020818303038152906040526040517f08c379a00000000000000000000000000000000000000000000000000000000081526004016110ca9190611f51565b60405180910390fd5b5050565b6110e18282610857565b6111b45760016005600084815260200190815260200160002060000160008373ffffffffffffffffffffffffffffffffffffffff1673ffffffffffffffffffffffffffffffffffffffff16815260200190815260200160002060006101000a81548160ff021916908315150217905550611159610be8565b73ffffffffffffffffffffffffffffffffffffffff168173ffffffffffffffffffffffffffffffffffffffff16837f2f8788117e7eff1d82e926ec794901d17c78024a50270940304540a733656f0d60405160405180910390a45b5050565b6111c28282610857565b156112965760006005600084815260200190815260200160002060000160008373ffffffffffffffffffffffffffffffffffffffff1673ffffffffffffffffffffffffffffffffffffffff16815260200190815260200160002060006101000a81548160ff02191690831515021790555061123b610be8565b73ffffffffffffffffffffffffffffffffffffffff168173ffffffffffffffffffffffffffffffffffffffff16837ff6391f5c32d9c69d2a47ea670b442974b53935d1edc7fd64eb21e047a839171b60405160405180910390a45b5050565b600073ffffffffffffffffffffffffffffffffffffffff168273ffffffffffffffffffffffffffffffffffffffff16141561130a576040517f08c379a000000000000000000000000000000000000000000000000000000000815260040161130190612053565b60405180910390fd5b6113168260008361146e565b60008060008473ffffffffffffffffffffffffffffffffffffffff1673ffffffffffffffffffffffffffffffffffffffff1681526020019081526020016000205490508181101561139c576040517f08c379a000000000000000000000000000000000000000000000000000000000815260040161139390611fb3565b60405180910390fd5b81816113a89190612200565b6000808573ffffffffffffffffffffffffffffffffffffffff1673ffffffffffffffffffffffffffffffffffffffff1681526020019081526020016000208190555081600260008282546113fc9190612200565b92505081905550600073ffffffffffffffffffffffffffffffffffffffff168373ffffffffffffffffffffffffffffffffffffffff167fddf252ad1be2c89b69c2b068fc378daa952ba7f163c4a11628f55a4df523b3ef8460405161146191906120f3565b60405180910390a3505050565b505050565b60606000600283600261148691906121a6565b6114909190612150565b67ffffffffffffffff8111156114cf577f4e487b7100000000000000000000000000000000000000000000000000000000600052604160045260246000fd5b6040519080825280601f01601f1916602001820160405280156115015781602001600182028036833780820191505090505b5090507f30000000000000000000000000000000000000000000000000000000000000008160008151811061155f577f4e487b7100000000000000000000000000000000000000000000000000000000600052603260045260246000fd5b60200101907effffffffffffffffffffffffffffffffffffffffffffffffffffffffffffff1916908160001a9053507f7800000000000000000000000000000000000000000000000000000000000000816001815181106115e9577f4e487b7100000000000000000000000000000000000000000000000000000000600052603260045260246000fd5b60200101907effffffffffffffffffffffffffffffffffffffffffffffffffffffffffffff1916908160001a9053506000600184600261162991906121a6565b6116339190612150565b90505b600181111561171f577f3031323334353637383961626364656600000000000000000000000000000000600f86166010811061169b577f4e487b7100000000000000000000000000000000000000000000000000000000600052603260045260246000fd5b1a60f81b8282815181106116d8577f4e487b7100000000000000000000000000000000000000000000000000000000600052603260045260246000fd5b60200101907effffffffffffffffffffffffffffffffffffffffffffffffffffffffffffff1916908160001a905350600485901c945080611718906122f2565b9050611636565b5060008414611763576040517f08c379a000000000000000000000000000000000000000000000000000000000815260040161175a90611f73565b60405180910390fd5b8091505092915050565b60008135905061177c816123bd565b92915050565b600081359050611791816123d4565b92915050565b6000813590506117a6816123eb565b92915050565b6000813590506117bb81612402565b92915050565b6000602082840312156117d357600080fd5b60006117e18482850161176d565b91505092915050565b600080604083850312156117fd57600080fd5b600061180b8582860161176d565b925050602061181c8582860161176d565b9150509250929050565b60008060006060848603121561183b57600080fd5b60006118498682870161176d565b935050602061185a8682870161176d565b925050604061186b868287016117ac565b9150509250925092565b6000806040838503121561188857600080fd5b60006118968582860161176d565b92505060206118a7858286016117ac565b9150509250929050565b6000602082840312156118c357600080fd5b60006118d184828501611782565b91505092915050565b600080604083850312156118ed57600080fd5b60006118fb85828601611782565b925050602061190c8582860161176d565b9150509250929050565b60006020828403121561192857600080fd5b600061193684828501611797565b91505092915050565b61194881612246565b82525050565b61195781612252565b82525050565b600061196882612129565b6119728185612134565b93506119828185602086016122bf565b61198b816123ac565b840191505092915050565b60006119a182612129565b6119ab8185612145565b93506119bb8185602086016122bf565b80840191505092915050565b60006119d4602083612134565b91507f537472696e67733a20686578206c656e67746820696e73756666696369656e746000830152602082019050919050565b6000611a14602383612134565b91507f45524332303a207472616e7366657220746f20746865207a65726f206164647260008301527f65737300000000000000000000000000000000000000000000000000000000006020830152604082019050919050565b6000611a7a602283612134565b91507f45524332303a206275726e20616d6f756e7420657863656564732062616c616e60008301527f63650000000000000000000000000000000000000000000000000000000000006020830152604082019050919050565b6000611ae0602283612134565b91507f45524332303a20617070726f766520746f20746865207a65726f20616464726560008301527f73730000000000000000000000000000000000000000000000000000000000006020830152604082019050919050565b6000611b46602683612134565b91507f45524332303a207472616e7366657220616d6f756e742065786365656473206260008301527f616c616e636500000000000000000000000000000000000000000000000000006020830152604082019050919050565b6000611bac601683612134565b91507f43616c6c6572206973206e6f742061206275726e6572000000000000000000006000830152602082019050919050565b6000611bec602883612134565b91507f45524332303a207472616e7366657220616d6f756e742065786365656473206160008301527f6c6c6f77616e63650000000000000000000000000000000000000000000000006020830152604082019050919050565b6000611c52602183612134565b91507f45524332303a206275726e2066726f6d20746865207a65726f2061646472657360008301527f73000000000000000000000000000000000000000000000000000000000000006020830152604082019050919050565b6000611cb8602583612134565b91507f45524332303a207472616e736665722066726f6d20746865207a65726f20616460008301527f64726573730000000000000000000000000000000000000000000000000000006020830152604082019050919050565b6000611d1e602483612134565b91507f45524332303a20617070726f76652066726f6d20746865207a65726f2061646460008301527f72657373000000000000000000000000000000000000000000000000000000006020830152604082019050919050565b6000611d84601783612145565b91507f416363657373436f6e74726f6c3a206163636f756e74200000000000000000006000830152601782019050919050565b6000611dc4602583612134565b91507f45524332303a2064656372656173656420616c6c6f77616e63652062656c6f7760008301527f207a65726f0000000000000000000000000000000000000000000000000000006020830152604082019050919050565b6000611e2a601183612145565b91507f206973206d697373696e6720726f6c65200000000000000000000000000000006000830152601182019050919050565b6000611e6a602f83612134565b91507f416363657373436f6e74726f6c3a2063616e206f6e6c792072656e6f756e636560008301527f20726f6c657320666f722073656c6600000000000000000000000000000000006020830152604082019050919050565b611ecc816122a8565b82525050565b611edb816122b2565b82525050565b6000611eec82611d77565b9150611ef88285611996565b9150611f0382611e1d565b9150611f0f8284611996565b91508190509392505050565b6000602082019050611f30600083018461193f565b92915050565b6000602082019050611f4b600083018461194e565b92915050565b60006020820190508181036000830152611f6b818461195d565b905092915050565b60006020820190508181036000830152611f8c816119c7565b9050919050565b60006020820190508181036000830152611fac81611a07565b9050919050565b60006020820190508181036000830152611fcc81611a6d565b9050919050565b60006020820190508181036000830152611fec81611ad3565b9050919050565b6000602082019050818103600083015261200c81611b39565b9050919050565b6000602082019050818103600083015261202c81611b9f565b9050919050565b6000602082019050818103600083015261204c81611bdf565b9050919050565b6000602082019050818103600083015261206c81611c45565b9050919050565b6000602082019050818103600083015261208c81611cab565b9050919050565b600060208201905081810360008301526120ac81611d11565b9050919050565b600060208201905081810360008301526120cc81611db7565b9050919050565b600060208201905081810360008301526120ec81611e5d565b9050919050565b60006020820190506121086000830184611ec3565b92915050565b60006020820190506121236000830184611ed2565b92915050565b600081519050919050565b600082825260208201905092915050565b600081905092915050565b600061215b826122a8565b9150612166836122a8565b9250827fffffffffffffffffffffffffffffffffffffffffffffffffffffffffffffffff0382111561219b5761219a61234e565b5b828201905092915050565b60006121b1826122a8565b91506121bc836122a8565b9250817fffffffffffffffffffffffffffffffffffffffffffffffffffffffffffffffff04831182151516156121f5576121f461234e565b5b828202905092915050565b600061220b826122a8565b9150612216836122a8565b9250828210156122295761222861234e565b5b828203905092915050565b600061223f82612288565b9050919050565b60008115159050919050565b6000819050919050565b60007fffffffff0000000000000000000000000000000000000000000000000000000082169050919050565b600073ffffffffffffffffffffffffffffffffffffffff82169050919050565b6000819050919050565b600060ff82169050919050565b60005b838110156122dd5780820151818401526020810190506122c2565b838111156122ec576000848401525b50505050565b60006122fd826122a8565b915060008214156123115761231061234e565b5b600182039050919050565b6000600282049050600182168061233457607f821691505b602082108114156123485761234761237d565b5b50919050565b7f4e487b7100000000000000000000000000000000000000000000000000000000600052601160045260246000fd5b7f4e487b7100000000000000000000000000000000000000000000000000000000600052602260045260246000fd5b6000601f19601f8301169050919050565b6123c681612234565b81146123d157600080fd5b50565b6123dd81612252565b81146123e857600080fd5b50565b6123f48161225c565b81146123ff57600080fd5b50565b61240b816122a8565b811461241657600080fd5b5056fea2646970667358221220e9d4b52a6a6be1c4efea2988832b0888a1e2bce8d7bf9995d0f2564799ee47fa64736f6c63430008000033",
  "devdoc": {
    "kind": "dev",
    "methods": {
      "allowance(address,address)": {
        "details": "See {IERC20-allowance}."
      },
      "approve(address,uint256)": {
        "details": "See {IERC20-approve}. Requirements: - `spender` cannot be the zero address."
      },
      "balanceOf(address)": {
        "details": "See {IERC20-balanceOf}."
      },
      "decimals()": {
        "details": "Returns the number of decimals used to get its user representation. For example, if `decimals` equals `2`, a balance of `505` tokens should be displayed to a user as `5,05` (`505 / 10 ** 2`). Tokens usually opt for a value of 18, imitating the relationship between Ether and Wei. This is the value {ERC20} uses, unless this function is overridden; NOTE: This information is only used for _display_ purposes: it in no way affects any of the arithmetic of the contract, including {IERC20-balanceOf} and {IERC20-transfer}."
      },
      "decreaseAllowance(address,uint256)": {
        "details": "Atomically decreases the allowance granted to `spender` by the caller. This is an alternative to {approve} that can be used as a mitigation for problems described in {IERC20-approve}. Emits an {Approval} event indicating the updated allowance. Requirements: - `spender` cannot be the zero address. - `spender` must have allowance for the caller of at least `subtractedValue`."
      },
      "getRoleAdmin(bytes32)": {
        "details": "Returns the admin role that controls `role`. See {grantRole} and {revokeRole}. To change a role's admin, use {_setRoleAdmin}."
      },
      "grantRole(bytes32,address)": {
        "details": "Grants `role` to `account`. If `account` had not been already granted `role`, emits a {RoleGranted} event. Requirements: - the caller must have ``role``'s admin role."
      },
      "hasRole(bytes32,address)": {
        "details": "Returns `true` if `account` has been granted `role`."
      },
      "increaseAllowance(address,uint256)": {
        "details": "Atomically increases the allowance granted to `spender` by the caller. This is an alternative to {approve} that can be used as a mitigation for problems described in {IERC20-approve}. Emits an {Approval} event indicating the updated allowance. Requirements: - `spender` cannot be the zero address."
      },
      "name()": {
        "details": "Returns the name of the token."
      },
      "renounceRole(bytes32,address)": {
        "details": "Revokes `role` from the calling account. Roles are often managed via {grantRole} and {revokeRole}: this function's purpose is to provide a mechanism for accounts to lose their privileges if they are compromised (such as when a trusted device is misplaced). If the calling account had been granted `role`, emits a {RoleRevoked} event. Requirements: - the caller must be `account`."
      },
      "revokeRole(bytes32,address)": {
        "details": "Revokes `role` from `account`. If `account` had been granted `role`, emits a {RoleRevoked} event. Requirements: - the caller must have ``role``'s admin role."
      },
      "supportsInterface(bytes4)": {
        "details": "See {IERC165-supportsInterface}."
      },
      "symbol()": {
        "details": "Returns the symbol of the token, usually a shorter version of the name."
      },
      "totalSupply()": {
        "details": "See {IERC20-totalSupply}."
      },
      "transfer(address,uint256)": {
        "details": "See {IERC20-transfer}. Requirements: - `recipient` cannot be the zero address. - the caller must have a balance of at least `amount`."
      },
      "transferFrom(address,address,uint256)": {
        "details": "See {IERC20-transferFrom}. Emits an {Approval} event indicating the updated allowance. This is not required by the EIP. See the note at the beginning of {ERC20}. Requirements: - `sender` and `recipient` cannot be the zero address. - `sender` must have a balance of at least `amount`. - the caller must have allowance for ``sender``'s tokens of at least `amount`."
      }
    },
    "version": 1
  },
  "userdoc": {
    "kind": "user",
    "methods": {},
    "version": 1
  },
  "storageLayout": {
    "storage": [
      {
        "astId": 383,
        "contract": "contracts/MtcToken.sol:MtcToken",
        "label": "_balances",
        "offset": 0,
        "slot": "0",
        "type": "t_mapping(t_address,t_uint256)"
      },
      {
        "astId": 389,
        "contract": "contracts/MtcToken.sol:MtcToken",
        "label": "_allowances",
        "offset": 0,
        "slot": "1",
        "type": "t_mapping(t_address,t_mapping(t_address,t_uint256))"
      },
      {
        "astId": 391,
        "contract": "contracts/MtcToken.sol:MtcToken",
        "label": "_totalSupply",
        "offset": 0,
        "slot": "2",
        "type": "t_uint256"
      },
      {
        "astId": 393,
        "contract": "contracts/MtcToken.sol:MtcToken",
        "label": "_name",
        "offset": 0,
        "slot": "3",
        "type": "t_string_storage"
      },
      {
        "astId": 395,
        "contract": "contracts/MtcToken.sol:MtcToken",
        "label": "_symbol",
        "offset": 0,
        "slot": "4",
        "type": "t_string_storage"
      },
      {
        "astId": 62,
        "contract": "contracts/MtcToken.sol:MtcToken",
        "label": "_roles",
        "offset": 0,
        "slot": "5",
        "type": "t_mapping(t_bytes32,t_struct(RoleData)57_storage)"
      },
      {
        "astId": 1255,
        "contract": "contracts/MtcToken.sol:MtcToken",
        "label": "a",
        "offset": 0,
        "slot": "6",
        "type": "t_string_storage"
      }
    ],
    "types": {
      "t_address": {
        "encoding": "inplace",
        "label": "address",
        "numberOfBytes": "20"
      },
      "t_bool": {
        "encoding": "inplace",
        "label": "bool",
        "numberOfBytes": "1"
      },
      "t_bytes32": {
        "encoding": "inplace",
        "label": "bytes32",
        "numberOfBytes": "32"
      },
      "t_mapping(t_address,t_bool)": {
        "encoding": "mapping",
        "key": "t_address",
        "label": "mapping(address => bool)",
        "numberOfBytes": "32",
        "value": "t_bool"
      },
      "t_mapping(t_address,t_mapping(t_address,t_uint256))": {
        "encoding": "mapping",
        "key": "t_address",
        "label": "mapping(address => mapping(address => uint256))",
        "numberOfBytes": "32",
        "value": "t_mapping(t_address,t_uint256)"
      },
      "t_mapping(t_address,t_uint256)": {
        "encoding": "mapping",
        "key": "t_address",
        "label": "mapping(address => uint256)",
        "numberOfBytes": "32",
        "value": "t_uint256"
      },
      "t_mapping(t_bytes32,t_struct(RoleData)57_storage)": {
        "encoding": "mapping",
        "key": "t_bytes32",
        "label": "mapping(bytes32 => struct AccessControl.RoleData)",
        "numberOfBytes": "32",
        "value": "t_struct(RoleData)57_storage"
      },
      "t_string_storage": {
        "encoding": "bytes",
        "label": "string",
        "numberOfBytes": "32"
      },
      "t_struct(RoleData)57_storage": {
        "encoding": "inplace",
        "label": "struct AccessControl.RoleData",
        "members": [
          {
            "astId": 54,
            "contract": "contracts/MtcToken.sol:MtcToken",
            "label": "members",
            "offset": 0,
            "slot": "0",
            "type": "t_mapping(t_address,t_bool)"
          },
          {
            "astId": 56,
            "contract": "contracts/MtcToken.sol:MtcToken",
            "label": "adminRole",
            "offset": 0,
            "slot": "1",
            "type": "t_bytes32"
          }
        ],
        "numberOfBytes": "64"
      },
      "t_uint256": {
        "encoding": "inplace",
        "label": "uint256",
        "numberOfBytes": "32"
      }
    }
  }
}